{
  "contractName": "Medic",
  "abi": [
    {
      "constant": true,
      "inputs": [
        {
          "name": "",
          "type": "address"
        }
      ],
      "name": "patient",
      "outputs": [
        {
          "name": "",
          "type": "uint8"
        }
      ],
      "payable": false,
      "stateMutability": "view",
      "type": "function"
    },
    {
      "inputs": [],
      "payable": false,
      "stateMutability": "nonpayable",
      "type": "constructor"
    },
    {
      "constant": false,
      "inputs": [
        {
          "name": "AC",
          "type": "uint256"
        },
        {
          "name": "_doc",
          "type": "address"
        },
        {
          "name": "_patient",
          "type": "address"
        }
      ],
      "name": "grantAcess",
      "outputs": [],
      "payable": false,
      "stateMutability": "nonpayable",
      "type": "function"
    },
    {
      "constant": false,
      "inputs": [
        {
          "name": "_add",
          "type": "address"
        },
        {
          "name": "isDoc",
          "type": "bool"
        }
      ],
      "name": "login",
      "outputs": [],
      "payable": false,
      "stateMutability": "nonpayable",
      "type": "function"
    },
    {
      "constant": false,
      "inputs": [
        {
          "name": "_add",
          "type": "address"
        },
        {
          "name": "isDoc",
          "type": "bool"
        }
      ],
      "name": "logout",
      "outputs": [],
      "payable": false,
      "stateMutability": "nonpayable",
      "type": "function"
    },
    {
      "constant": false,
      "inputs": [
        {
          "name": "_doc",
          "type": "address"
        }
      ],
      "name": "getThePatients",
      "outputs": [
        {
          "name": "",
          "type": "address[]"
        }
      ],
      "payable": false,
      "stateMutability": "nonpayable",
      "type": "function"
    },
    {
      "constant": false,
      "inputs": [
        {
          "name": "_patient",
          "type": "address"
        }
      ],
      "name": "getTheDocs",
      "outputs": [
        {
          "name": "",
          "type": "address[]"
        }
      ],
      "payable": false,
      "stateMutability": "nonpayable",
      "type": "function"
    }
  ],
  "bytecode": "0x6060604052341561000f57600080fd5b6000600160006101000a81548160ff021916908360ff16021790555060006001806101000a81548160ff021916908360ff160217905550611085806100556000396000f300606060405260043610610078576000357c0100000000000000000000000000000000000000000000000000000000900463ffffffff16806339acbffe1461007d578063bda2dea1146100c1578063bdaf6b9f14610122578063cce905b3146101b0578063d44427b11461023e578063f728635a14610291575b600080fd5b341561008857600080fd5b6100bf600480803573ffffffffffffffffffffffffffffffffffffffff1690602001909190803515159060200190919050506102d5565b005b34156100cc57600080fd5b610120600480803590602001909190803573ffffffffffffffffffffffffffffffffffffffff1690602001909190803573ffffffffffffffffffffffffffffffffffffffff16906020019091905050610397565b005b341561012d57600080fd5b610159600480803573ffffffffffffffffffffffffffffffffffffffff16906020019091905050610b17565b6040518080602001828103825283818151815260200191508051906020019060200280838360005b8381101561019c578082015181840152602081019050610181565b505050509050019250505060405180910390f35b34156101bb57600080fd5b6101e7600480803573ffffffffffffffffffffffffffffffffffffffff16906020019091905050610d14565b6040518080602001828103825283818151815260200191508051906020019060200280838360005b8381101561022a57808201518184015260208101905061020f565b505050509050019250505060405180910390f35b341561024957600080fd5b610275600480803573ffffffffffffffffffffffffffffffffffffffff16906020019091905050610f12565b604051808260ff1660ff16815260200191505060405180910390f35b341561029c57600080fd5b6102d3600480803573ffffffffffffffffffffffffffffffffffffffff169060200190919080351515906020019091905050610f32565b005b8015610339576000600760008473ffffffffffffffffffffffffffffffffffffffff1673ffffffffffffffffffffffffffffffffffffffff16815260200190815260200160002060006101000a81548160ff021916908360ff160217905550610393565b6000600860008473ffffffffffffffffffffffffffffffffffffffff1673ffffffffffffffffffffffffffffffffffffffff16815260200190815260200160002060006101000a81548160ff021916908360ff1602179055505b5050565b600183141561097c576001600660008473ffffffffffffffffffffffffffffffffffffffff1673ffffffffffffffffffffffffffffffffffffffff16815260200190815260200160002060009054906101000a900460ff1660ff161415156104ec57600160009054906101000a900460ff16600260008473ffffffffffffffffffffffffffffffffffffffff1673ffffffffffffffffffffffffffffffffffffffff16815260200190815260200160002060006101000a81548160ff021916908360ff1602179055506001600081819054906101000a900460ff168092919060010191906101000a81548160ff021916908360ff160217905550506001600660008473ffffffffffffffffffffffffffffffffffffffff1673ffffffffffffffffffffffffffffffffffffffff16815260200190815260200160002060006101000a81548160ff021916908360ff1602179055505b6001600560008373ffffffffffffffffffffffffffffffffffffffff1673ffffffffffffffffffffffffffffffffffffffff16815260200190815260200160002060009054906101000a900460ff1660ff16141515610635576001809054906101000a900460ff166000808373ffffffffffffffffffffffffffffffffffffffff1673ffffffffffffffffffffffffffffffffffffffff16815260200190815260200160002060006101000a81548160ff021916908360ff16021790555060018081819054906101000a900460ff168092919060010191906101000a81548160ff021916908360ff160217905550506001600560008373ffffffffffffffffffffffffffffffffffffffff1673ffffffffffffffffffffffffffffffffffffffff16815260200190815260200160002060006101000a81548160ff021916908360ff1602179055505b617d096000808373ffffffffffffffffffffffffffffffffffffffff1673ffffffffffffffffffffffffffffffffffffffff16815260200190815260200160002060009054906101000a900460ff1660ff166103e88110151561069457fe5b0180548060010182816106a79190610ff4565b9160005260206000209001600084909190916101000a81548173ffffffffffffffffffffffffffffffffffffffff021916908373ffffffffffffffffffffffffffffffffffffffff160217905550506180f1600260008473ffffffffffffffffffffffffffffffffffffffff1673ffffffffffffffffffffffffffffffffffffffff16815260200190815260200160002060009054906101000a900460ff1660ff166103e88110151561075657fe5b0180548060010182816107699190610ff4565b9160005260206000209001600083909190916101000a81548173ffffffffffffffffffffffffffffffffffffffff021916908373ffffffffffffffffffffffffffffffffffffffff16021790555050600360008273ffffffffffffffffffffffffffffffffffffffff1673ffffffffffffffffffffffffffffffffffffffff168152602001908152602001600020600081819054906101000a900460ff168092919060010191906101000a81548160ff021916908360ff16021790555050600460008373ffffffffffffffffffffffffffffffffffffffff1673ffffffffffffffffffffffffffffffffffffffff168152602001908152602001600020600081819054906101000a900460ff168092919060010191906101000a81548160ff021916908360ff16021790555050600160096000808473ffffffffffffffffffffffffffffffffffffffff1673ffffffffffffffffffffffffffffffffffffffff16815260200190815260200160002060009054906101000a900460ff1660ff166103e8811015156108f657fe5b60200201600260008573ffffffffffffffffffffffffffffffffffffffff1673ffffffffffffffffffffffffffffffffffffffff16815260200190815260200160002060009054906101000a900460ff1660ff166103e88110151561095757fe5b602091828204019190066101000a81548160ff021916908360ff160217905550610b12565b6001600560008373ffffffffffffffffffffffffffffffffffffffff1673ffffffffffffffffffffffffffffffffffffffff16815260200190815260200160002060009054906101000a900460ff1660ff16148015610a2a57506001600660008473ffffffffffffffffffffffffffffffffffffffff1673ffffffffffffffffffffffffffffffffffffffff16815260200190815260200160002060009054906101000a900460ff1660ff16145b15610b1157600060096000808473ffffffffffffffffffffffffffffffffffffffff1673ffffffffffffffffffffffffffffffffffffffff16815260200190815260200160002060009054906101000a900460ff1660ff166103e881101515610a8f57fe5b60200201600260008573ffffffffffffffffffffffffffffffffffffffff1673ffffffffffffffffffffffffffffffffffffffff16815260200190815260200160002060009054906101000a900460ff1660ff166103e881101515610af057fe5b602091828204019190066101000a81548160ff021916908360ff1602179055505b5b505050565b610b1f611020565b600080600090505b600360008573ffffffffffffffffffffffffffffffffffffffff1673ffffffffffffffffffffffffffffffffffffffff16815260200190815260200160002060009054906101000a900460ff1660ff16811015610c8557818054806001018281610b919190610ff4565b91600052602060002090016000617d096000808973ffffffffffffffffffffffffffffffffffffffff1673ffffffffffffffffffffffffffffffffffffffff16815260200190815260200160002060009054906101000a900460ff1660ff166103e881101515610bfd57fe5b0184815481101515610c0b57fe5b906000526020600020900160009054906101000a900473ffffffffffffffffffffffffffffffffffffffff16909190916101000a81548173ffffffffffffffffffffffffffffffffffffffff021916908373ffffffffffffffffffffffffffffffffffffffff160217905550508080600101915050610b27565b81805480602002602001604051908101604052809291908181526020018280548015610d0657602002820191906000526020600020905b8160009054906101000a900473ffffffffffffffffffffffffffffffffffffffff1673ffffffffffffffffffffffffffffffffffffffff1681526020019060010190808311610cbc575b505050505092505050919050565b610d1c611020565b600080600090505b600460008573ffffffffffffffffffffffffffffffffffffffff1673ffffffffffffffffffffffffffffffffffffffff16815260200190815260200160002060009054906101000a900460ff1660ff16811015610e8357818054806001018281610d8e9190610ff4565b916000526020600020900160006180f1600260008973ffffffffffffffffffffffffffffffffffffffff1673ffffffffffffffffffffffffffffffffffffffff16815260200190815260200160002060009054906101000a900460ff1660ff166103e881101515610dfb57fe5b0184815481101515610e0957fe5b906000526020600020900160009054906101000a900473ffffffffffffffffffffffffffffffffffffffff16909190916101000a81548173ffffffffffffffffffffffffffffffffffffffff021916908373ffffffffffffffffffffffffffffffffffffffff160217905550508080600101915050610d24565b81805480602002602001604051908101604052809291908181526020018280548015610f0457602002820191906000526020600020905b8160009054906101000a900473ffffffffffffffffffffffffffffffffffffffff1673ffffffffffffffffffffffffffffffffffffffff1681526020019060010190808311610eba575b505050505092505050919050565b60006020528060005260406000206000915054906101000a900460ff1681565b8015610f96576001600760008473ffffffffffffffffffffffffffffffffffffffff1673ffffffffffffffffffffffffffffffffffffffff16815260200190815260200160002060006101000a81548160ff021916908360ff160217905550610ff0565b6001600860008473ffffffffffffffffffffffffffffffffffffffff1673ffffffffffffffffffffffffffffffffffffffff16815260200190815260200160002060006101000a81548160ff021916908360ff1602179055505b5050565b81548183558181151161101b5781836000526020600020918201910161101a9190611034565b5b505050565b602060405190810160405280600081525090565b61105691905b8082111561105257600081600090555060010161103a565b5090565b905600a165627a7a723058207c52928d1cb1d537b08a304fc9422c7a0dba14ada309dc0a4d915aa58c3c67010029",
  "source": "pragma solidity ^0.4.17;\n// We have to specify what version of compiler this code will compile with\ncontract Medic{\nmapping (address => uint8) public patient ;\nuint8 docsTillNow ;\nuint8 patientTillNow ;\n\nmapping (address => uint8) doctor ;\nmapping (address => uint8) patientKaDoc;\n mapping (address => uint8) docKaPatient;\nmapping (address => uint8) visPatient ;\nmapping (address => uint8) visDoctor ;\nmapping (address => uint8) sessionDoc;\nmapping (address => uint8) sessionPat;\nuint8 [1000][1000] Permission ;\naddress [][1000]  DoctorList ;\naddress [][1000] PatientList;\nfunction Medic() public{\n    docsTillNow=0;\n    patientTillNow=0;\n}\nfunction grantAcess( uint AC,address _doc, address _patient) public{\n    if(AC==1){\n        if(visDoctor[_doc]!=1){\n            doctor[_doc]=docsTillNow;\n            docsTillNow++;\n            visDoctor[_doc]=1;\n           \n           \n        }\n        if(visPatient[_patient]!=1){\n            patient[_patient]=patientTillNow;\n            patientTillNow++;\n            visPatient[_patient]=1;\n        }\n         DoctorList[patient[_patient]].push(_doc);\n         PatientList[doctor[_doc]].push(_patient);\n         patientKaDoc[_patient]++;\n         docKaPatient[_doc]++;\n        Permission[patient[_patient]][doctor[_doc]]=1;\n       \n    }\n  else{\n        if(visPatient[_patient]==1 && visDoctor[_doc]==1)\n         Permission[patient[_patient]][doctor[_doc]]=0;\n  }\n   \n}\nfunction login(address _add, bool isDoc) public{\n    if(isDoc)sessionDoc[_add]=1;\n    else\n       sessionPat[_add]=1;\n}\n function logout(address _add, bool isDoc) public{\n    if(isDoc)sessionDoc[_add]=0;\n    else\n       sessionPat[_add]=0;\n}\nfunction getThePatients(address _doc) public returns (address []){\n    address [] temp;\n    //for(uint i=0;i<DoctorList[patient[_patient]].length;i++)\n      //temp.push(DoctorList[patient[_patient]][i]);\n      for(uint i=0;i<docKaPatient[_doc];i++)\n      temp.push(PatientList[doctor[_doc]][i]);\n      //temp.push(DoctorList[patient[_patient]][1]);\n      return temp;\n}\nfunction getTheDocs(address _patient) public returns (address []){\n    address [] temp;\n    //for(uint i=0;i<DoctorList[patient[_patient]].length;i++)\n      //temp.push(DoctorList[patient[_patient]][i]);\n      for(uint i=0;i<patientKaDoc[_patient];i++)\n      temp.push(DoctorList[patient[_patient]][i]);\n      //temp.push(DoctorList[patient[_patient]][1]);\nreturn temp;\n}\n}\n",
  "sourcePath": "/home/omkar/Downloads/hack/contracts/Medic.sol",
  "compiler": {
    "name": "solc",
    "version": "0.4.19+commit.c4cbbb05.Emscripten.clang"
  },
  "schemaVersion": "2.0.0",
  "updatedAt": "2018-03-20T13:43:01.436Z"
}